:100000000C9443000C9455000C9455000C942F0153
:100010000C9455000C9455000C9455000C9455000C
:100020000C9455000C9455000C9455000C945500FC
:100030000C9455000C9455000C9455000C945500EC
:100040000C9455000C9455000C9455000C945500DC
:100050000C9455000C9455000C9455000C945500CC
:100060000C94E6000C945500A100A500A900AD0079
:10007000B100B500B900BD00C100C500C900CD0088
:10008000D100D500D90011241FBECFEFD8E0DEBFCC
:10009000CDBF21E0A0E0B1E001C01D92A130B207C8
:1000A000E1F70E9485000C945C010C94000097B16C
:1000B0009F7C97B990E0880F991F8093BA0085E4E0
:1000C0008093BC000895F89484B18E7F84B985B183
:1000D000816085B984B18D7F84B985B1826085B92D
:1000E0008AB18C638AB98BB1837C8BB9E8E6F0E086
:1000F000808181608083EBE6F0E080818360808393
:1001000080E40E945700789408950E9463008091D3
:100110000001803118F01092000102C080910001AE
:100120008BB1837C8BB9E09100018E2F90E0FC01B4
:100130003197EF30F10508F03FC0EC5CFF4F0C94B5
:1001400056018BB184608BB937C08BB188608BB995
:1001500033C08BB18C608BB92FC08BB180618BB9F0
:100160002BC08BB184618BB927C08BB188618BB9EF
:1001700023C08BB18C618BB91FC08BB180628BB9EE
:100180001BC08BB184628BB917C08BB188628BB9ED
:1001900013C08BB18C628BB90FC08BB180638BB9EC
:1001A0000BC08BB184638BB907C08BB188638BB9EB
:1001B00003C08BB18C638BB92FEF81EE94E021509B
:1001C00080409040E1F700C00000A1CF1F920F9245
:1001D0000FB60F9211248F93EF93FF938091B90084
:1001E000887F8039C9F038F4803781F08038A1F0F9
:1001F000803641F50BC0883BA9F018F4883A91F09D
:1002000021C0803CC9F0883CB9F01CC0ECEBF0E0A8
:100210008081806C80831BC0ECEBF0E08081806C7F
:10022000808315C0809100018093BB00ECEBF0E06F
:100230008081806C80830BC0ECEBF0E08081806C6F
:10024000808305C0ECEBF0E0808180698083FF91C2
:10025000EF918F910F900FBE0F901F9018951F92E6
:100260000F920FB60F9211242F938F939F932FEF1E
:1002700080E792E0215080409040E1F700C000000C
:10028000199905C0809100018F5F80930001189932
:1002900005C0809100018150809300019F918F9152
:1002A0002F910F900FBE0F901F901895EE0FFF1F0C
:0C02B0000590F491E02D0994F894FFCF24
:00000001FF
