S0120000536C617665315F4932432E73726563C9
S11300000C943C000C944E000C944E000C944E0046
S11300100C944E000C944E000C944E000C944E0024
S11300200C944E000C944E000C944E000C944E0014
S11300300C944E000C944E000C944E000C944E0004
S11300400C944E000C944E000C944E000C944E00F4
S11300500C944E000C9442010C944E000C944E00EF
S11300600C94F9000C944E005A0065007300810052
S11300708F009D00AB00B40011241FBECFEFD8E069
S1130080DEBFCDBF21E0A0E0B1E001C01D92A130F0
S1130090B207E1F70E94DC000C9461010C940000AB
S11300A090E08830910508F067C0FC01EC5CFF4FDC
S11300B00C945B01EEE7F0E0808181608083ECE7E3
S11300C0F0E08081887F808357C0ECE7F0E0808196
S11300D0887F8083808181608083EEE7F0E0808187
S11300E08260808349C0ECE7F0E08081887F808370
S11300F0808182608083EEE7F0E080818460808389
S11301003BC0ECE7F0E08081887F8083808183605E
S11301108083EEE7F0E08081886080832DC0ECE787
S1130120F0E08081887F8083808184608083EEE733
S1130130F0E08081806180831FC0ECE7F0E0808183
S1130140887F8083808185608083EEE7F0E0808112
S11301508062808311C0ECE7F0E08081887F808337
S113016080818660808308C0ECE7F0E08081887F2E
S11301708083808187608083ECE7F0E08081806207
S11301808083808180648083EAE7F0E080818860F6
S113019080838081876080838081806880830895E4
S11301A097B19F7C97B990E0880F991F8093BA000C
S11301B085E48093BC000895F8948AB184608AB978
S11301C08BB18B7F8BB980E30E94D00086E00E94C4
S11301D050007894EAE7F0E08081806480832FEF18
S11301E083ED90E3215080409040E1F700C000008F
S11301F0F1CF1F920F920FB60F9211248F93EF93AA
S1130200FF938091B900887F8039C9F038F4803732
S113021081F08038A1F0803641F50BC0883BA9F00D
S113022018F4883A91F021C0803CC9F0883CB9F0B8
S11302301CC0ECEBF0E08081806C80831BC0ECEB95
S1130240F0E08081806C808315C0809100018093F0
S1130250BB00ECEBF0E08081806C80830BC0ECEBA6
S1130260F0E08081806C808305C0ECEBF0E080815D
S113027080698083FF91EF918F910F900FBE0F9053
S11302801F9018951F920F920FB60F9211248F93FF
S1130290EF93FF938091790080930001EAE7F0E007
S11302A0808180618083FF91EF918F910F900FBEC9
S11302B00F901F901895EE0FFF1F0590F491E02DFD
S10902C00994F894FFCF3D
S9030000FC
